120160831PAGO FACIL               090060406ESTUDIO HFA Y ASOC. SC                                                               
320160831000001ESTUDIO HFA Y ASOC. SC                                                                                           
500001102016083020160831014093259            PES0000045800T000062016083018020004                                                
690060406UTONL014093259	                                                                                                        
7PESE                                                                                000000000045800                            
500002102016083020160831133222787            PES0000095000T000062016083018030006                                                
690060406UTONL133222787                                                                                                        
7PESE                                                                                000000000095000                            
500003102016083020160831138751523            PES0000015800T000062016083018020002                                                
690060406UTONL138751523                                                                                                        
7PESE                                                                                000000000015800                            
500004102016083020160831160258267            PES0000035800T000062016083018030005                                                
690060406UTONL160258267                                                                                                        
7PESE                                                                                000000000035800                            
500005102016083020160831210908795            PES0000126500T000062016083018020003                                                
690060406UTONL210908795                                                                                                        
7PESE                                                                                000000000126500                            
500006102016083020160831287971418            PES0000050000T000062016083018010001                                                
690060406UTONL287971418                                                                                                        
7PESE                                                                                000000000050000                            
82016083100000100000060000003689000000000000000000000000000000000000000000006                                                   
9201608310000010000006000000368900000000000000000000000000000000000000000000006                                                 
